{
    "contractName": "FundRaise",
    "abi": [
        {
            "anonymous": false,
            "inputs": [
                {
                    "indexed": false,
                    "internalType": "uint256",
                    "name": "amount",
                    "type": "uint256"
                }
            ],
            "name": "Donated",
            "type": "event"
        },
        {
            "anonymous": false,
            "inputs": [
                {
                    "indexed": false,
                    "internalType": "uint256",
                    "name": "id",
                    "type": "uint256"
                }
            ],
            "name": "EventCreated",
            "type": "event"
        },
        {
            "anonymous": false,
            "inputs": [
                {
                    "indexed": true,
                    "internalType": "address",
                    "name": "previousOwner",
                    "type": "address"
                },
                {
                    "indexed": true,
                    "internalType": "address",
                    "name": "newOwner",
                    "type": "address"
                }
            ],
            "name": "OwnershipTransferred",
            "type": "event"
        },
        {
            "anonymous": false,
            "inputs": [
                {
                    "indexed": false,
                    "internalType": "uint256",
                    "name": "id",
                    "type": "uint256"
                }
            ],
            "name": "Withdraw",
            "type": "event"
        },
        {
            "inputs": [
                {
                    "internalType": "string",
                    "name": "_title",
                    "type": "string"
                },
                {
                    "internalType": "string",
                    "name": "_description",
                    "type": "string"
                },
                {
                    "internalType": "uint256",
                    "name": "goal",
                    "type": "uint256"
                }
            ],
            "name": "createEvent",
            "outputs": [],
            "stateMutability": "nonpayable",
            "type": "function"
        },
        {
            "inputs": [
                {
                    "internalType": "uint256",
                    "name": "idForEvent",
                    "type": "uint256"
                }
            ],
            "name": "donate",
            "outputs": [],
            "stateMutability": "payable",
            "type": "function"
        },
        {
            "inputs": [],
            "name": "eventId",
            "outputs": [
                {
                    "internalType": "uint256",
                    "name": "",
                    "type": "uint256"
                }
            ],
            "stateMutability": "view",
            "type": "function"
        },
        {
            "inputs": [
                {
                    "internalType": "uint256",
                    "name": "",
                    "type": "uint256"
                }
            ],
            "name": "fundRaises",
            "outputs": [
                {
                    "internalType": "string",
                    "name": "title",
                    "type": "string"
                },
                {
                    "internalType": "string",
                    "name": "description",
                    "type": "string"
                },
                {
                    "internalType": "uint256",
                    "name": "goal",
                    "type": "uint256"
                },
                {
                    "internalType": "uint256",
                    "name": "currentAmount",
                    "type": "uint256"
                },
                {
                    "internalType": "uint256",
                    "name": "id",
                    "type": "uint256"
                },
                {
                    "internalType": "bool",
                    "name": "status",
                    "type": "bool"
                },
                {
                    "internalType": "address",
                    "name": "creator",
                    "type": "address"
                }
            ],
            "stateMutability": "view",
            "type": "function"
        },
        {
            "inputs": [],
            "name": "getHomeData",
            "outputs": [
                {
                    "components": [
                        {
                            "internalType": "string",
                            "name": "title",
                            "type": "string"
                        },
                        {
                            "internalType": "uint256",
                            "name": "id",
                            "type": "uint256"
                        }
                    ],
                    "internalType": "struct FundRaise.HomeCard[]",
                    "name": "",
                    "type": "tuple[]"
                }
            ],
            "stateMutability": "view",
            "type": "function"
        },
        {
            "inputs": [],
            "name": "owner",
            "outputs": [
                {
                    "internalType": "address",
                    "name": "",
                    "type": "address"
                }
            ],
            "stateMutability": "view",
            "type": "function"
        },
        {
            "inputs": [],
            "name": "renounceOwnership",
            "outputs": [],
            "stateMutability": "nonpayable",
            "type": "function"
        },
        {
            "inputs": [
                {
                    "internalType": "address",
                    "name": "newOwner",
                    "type": "address"
                }
            ],
            "name": "transferOwnership",
            "outputs": [],
            "stateMutability": "nonpayable",
            "type": "function"
        },
        {
            "inputs": [
                {
                    "internalType": "uint256",
                    "name": "idForEvent",
                    "type": "uint256"
                }
            ],
            "name": "withdraw",
            "outputs": [],
            "stateMutability": "nonpayable",
            "type": "function"
        }
    ],
    "bytecode": "6080604052600060015534801561001557600080fd5b5061001f33610024565b610074565b600080546001600160a01b038381166001600160a01b0319831681178455604051919092169283917f8be0079c531659141344cd1fd0a4f28419497f9722a3daafe3b4186f6b6457e09190a35050565b610bdc806100836000396000f3fe6080604052600436106100865760003560e01c80635555fe17116100595780635555fe171461012b578063715018a61461014b5780638da5cb5b14610160578063f14faf6f14610188578063f2fde38b1461019b57600080fd5b8063089cdd0c1461008b5780632c0946c7146100b45780632e1a7d4d146100e75780633958f20d14610109575b600080fd5b34801561009757600080fd5b506100a160015481565b6040519081526020015b60405180910390f35b3480156100c057600080fd5b506100d46100cf366004610866565b6101bb565b6040516100ab97969594939291906108cc565b3480156100f357600080fd5b50610107610102366004610866565b610313565b005b34801561011557600080fd5b5061011e6103c0565b6040516100ab9190610927565b34801561013757600080fd5b50610107610146366004610a40565b61051a565b34801561015757600080fd5b5061010761067f565b34801561016c57600080fd5b506000546040516001600160a01b0390911681526020016100ab565b610107610196366004610866565b6106b5565b3480156101a757600080fd5b506101076101b6366004610aad565b6106e2565b6002602052600090815260409020805481906101d690610add565b80601f016020809104026020016040519081016040528092919081815260200182805461020290610add565b801561024f5780601f106102245761010080835404028352916020019161024f565b820191906000526020600020905b81548152906001019060200180831161023257829003601f168201915b50505050509080600101805461026490610add565b80601f016020809104026020016040519081016040528092919081815260200182805461029090610add565b80156102dd5780601f106102b2576101008083540402835291602001916102dd565b820191906000526020600020905b8154815290600101906020018083116102c057829003601f168201915b505050506002830154600384015460048501546005909501549394919390925060ff81169061010090046001600160a01b031687565b6000818152600260205260409020600581015433919061010090046001600160a01b0316821461034257600080fd5b60038101546040516001600160a01b0384169180156108fc02916000818181858888f1935050505015801561037b573d6000803e3d6000fd5b5060058101805460ff191690556040518381527f5b6b431d4476a211bb7d41c20d1aab9ae2321deee0d20be3d9fc9b1093fa6e3d9060200160405180910390a1505050565b6060600060015467ffffffffffffffff8111156103df576103df61099d565b60405190808252806020026020018201604052801561042557816020015b6040805180820190915260608152600060208201528152602001906001900390816103fd5790505b50905060005b6001548110156105145760408051808201825260008381526002602052918220805482919061045990610add565b80601f016020809104026020016040519081016040528092919081815260200182805461048590610add565b80156104d25780601f106104a7576101008083540402835291602001916104d2565b820191906000526020600020905b8154815290600101906020018083116104b557829003601f168201915b50505050508152602001838152509050808383815181106104f5576104f5610b12565b602002602001018190525050808061050c90610b3e565b91505061042b565b50919050565b6000546001600160a01b0316331461054d5760405162461bcd60e51b815260040161054490610b59565b60405180910390fd5b600180546040805160e08101825286815260208082018790528183018690526000606083018190526080830185905260a08301959095523360c0830181905284865260028252929094208151805194959394929384936105b092849201906107cd565b5060208281015180516105c992600185019201906107cd565b5060408201516002820155606082015160038201556080820151600482015560a08201516005909101805460c0909301516001600160a01b031661010002610100600160a81b0319921515929092166001600160a81b03199093169290921717905560018054819060009061063f908390610b8e565b90915550506040518381527f748ff5cfd7b66bdd8e21581c2a864756fe7085378c0003183e579bfafba283259060200160405180910390a1505050505050565b6000546001600160a01b031633146106a95760405162461bcd60e51b815260040161054490610b59565b6106b3600061077d565b565b6000818152600260205260409020600381015434906106d5908290610b8e565b8260030181905550505050565b6000546001600160a01b0316331461070c5760405162461bcd60e51b815260040161054490610b59565b6001600160a01b0381166107715760405162461bcd60e51b815260206004820152602660248201527f4f776e61626c653a206e6577206f776e657220697320746865207a65726f206160448201526564647265737360d01b6064820152608401610544565b61077a8161077d565b50565b600080546001600160a01b038381166001600160a01b0319831681178455604051919092169283917f8be0079c531659141344cd1fd0a4f28419497f9722a3daafe3b4186f6b6457e09190a35050565b8280546107d990610add565b90600052602060002090601f0160209004810192826107fb5760008555610841565b82601f1061081457805160ff1916838001178555610841565b82800160010185558215610841579182015b82811115610841578251825591602001919060010190610826565b5061084d929150610851565b5090565b5b8082111561084d5760008155600101610852565b60006020828403121561087857600080fd5b5035919050565b6000815180845260005b818110156108a557602081850181015186830182015201610889565b818111156108b7576000602083870101525b50601f01601f19169290920160200192915050565b60e0815260006108df60e083018a61087f565b82810360208401526108f1818a61087f565b6040840198909852505060608101949094526080840192909252151560a08301526001600160a01b031660c09091015292915050565b60006020808301818452808551808352604092508286019150828160051b87010184880160005b8381101561098f57888303603f19018552815180518785526109728886018261087f565b91890151948901949094529487019492509086019060010161094e565b509098975050505050505050565b634e487b7160e01b600052604160045260246000fd5b600082601f8301126109c457600080fd5b813567ffffffffffffffff808211156109df576109df61099d565b604051601f8301601f19908116603f01168101908282118183101715610a0757610a0761099d565b81604052838152866020858801011115610a2057600080fd5b836020870160208301376000602085830101528094505050505092915050565b600080600060608486031215610a5557600080fd5b833567ffffffffffffffff80821115610a6d57600080fd5b610a79878388016109b3565b94506020860135915080821115610a8f57600080fd5b50610a9c868287016109b3565b925050604084013590509250925092565b600060208284031215610abf57600080fd5b81356001600160a01b0381168114610ad657600080fd5b9392505050565b600181811c90821680610af157607f821691505b6020821081141561051457634e487b7160e01b600052602260045260246000fd5b634e487b7160e01b600052603260045260246000fd5b634e487b7160e01b600052601160045260246000fd5b6000600019821415610b5257610b52610b28565b5060010190565b6020808252818101527f4f776e61626c653a2063616c6c6572206973206e6f7420746865206f776e6572604082015260600190565b60008219821115610ba157610ba1610b28565b50019056fea264697066735822122061c847376e67999aae7ad96b166f45de671f1dc273bf306692004e21b000184c64736f6c634300080b0033",
    "sourcePath": "/home/codebreak/Personal Projects/Consensys-thereum-bootcamp/Chapter09-1 - The-Final-Project/FInal project/blockchain-developer-bootcamp-final-project/contracts/FundRaise.sol",
    "compiler": {
        "name": "solc",
        "version": "0.8.11+commit.d7f03943"
    },
    "functionHashes": {
        "createEvent(string,string,uint256)": "5555fe17",
        "donate(uint256)": "f14faf6f",
        "eventId()": "089cdd0c",
        "fundRaises(uint256)": "2c0946c7",
        "getHomeData()": "3958f20d",
        "owner()": "8da5cb5b",
        "renounceOwnership()": "715018a6",
        "transferOwnership(address)": "f2fde38b",
        "withdraw(uint256)": "2e1a7d4d"
    },
    "gasEstimates": {
        "creation": {
            "codeDepositCost": "607200",
            "executionCost": "31485",
            "totalCost": "638685"
        },
        "external": {
            "createEvent(string,string,uint256)": "infinite",
            "donate(uint256)": "24642",
            "eventId()": "2285",
            "fundRaises(uint256)": "infinite",
            "getHomeData()": "infinite",
            "owner()": "2345",
            "renounceOwnership()": "28136",
            "transferOwnership(address)": "28362",
            "withdraw(uint256)": "infinite"
        }
    }
}