{
  "contractName": "FundRaise",
  "abi": [
    {
      "anonymous": false,
      "inputs": [
        {
          "indexed": false,
          "internalType": "uint256",
          "name": "amount",
          "type": "uint256"
        }
      ],
      "name": "Donated",
      "type": "event"
    },
    {
      "anonymous": false,
      "inputs": [
        {
          "indexed": false,
          "internalType": "uint256",
          "name": "id",
          "type": "uint256"
        }
      ],
      "name": "EventCreated",
      "type": "event"
    },
    {
      "anonymous": false,
      "inputs": [
        {
          "indexed": true,
          "internalType": "address",
          "name": "previousOwner",
          "type": "address"
        },
        {
          "indexed": true,
          "internalType": "address",
          "name": "newOwner",
          "type": "address"
        }
      ],
      "name": "OwnershipTransferred",
      "type": "event"
    },
    {
      "anonymous": false,
      "inputs": [
        {
          "indexed": false,
          "internalType": "uint256",
          "name": "id",
          "type": "uint256"
        }
      ],
      "name": "Withdraw",
      "type": "event"
    },
    {
      "inputs": [],
      "name": "eventId",
      "outputs": [
        {
          "internalType": "uint256",
          "name": "",
          "type": "uint256"
        }
      ],
      "stateMutability": "view",
      "type": "function"
    },
    {
      "inputs": [
        {
          "internalType": "uint256",
          "name": "",
          "type": "uint256"
        }
      ],
      "name": "fundRaises",
      "outputs": [
        {
          "internalType": "string",
          "name": "title",
          "type": "string"
        },
        {
          "internalType": "string",
          "name": "description",
          "type": "string"
        },
        {
          "internalType": "uint256",
          "name": "goal",
          "type": "uint256"
        },
        {
          "internalType": "uint256",
          "name": "currentAmount",
          "type": "uint256"
        },
        {
          "internalType": "uint256",
          "name": "id",
          "type": "uint256"
        },
        {
          "internalType": "bool",
          "name": "status",
          "type": "bool"
        },
        {
          "internalType": "address",
          "name": "creator",
          "type": "address"
        }
      ],
      "stateMutability": "view",
      "type": "function"
    },
    {
      "inputs": [],
      "name": "owner",
      "outputs": [
        {
          "internalType": "address",
          "name": "",
          "type": "address"
        }
      ],
      "stateMutability": "view",
      "type": "function"
    },
    {
      "inputs": [],
      "name": "renounceOwnership",
      "outputs": [],
      "stateMutability": "nonpayable",
      "type": "function"
    },
    {
      "inputs": [
        {
          "internalType": "address",
          "name": "newOwner",
          "type": "address"
        }
      ],
      "name": "transferOwnership",
      "outputs": [],
      "stateMutability": "nonpayable",
      "type": "function"
    },
    {
      "inputs": [
        {
          "internalType": "string",
          "name": "_title",
          "type": "string"
        },
        {
          "internalType": "string",
          "name": "_description",
          "type": "string"
        },
        {
          "internalType": "uint256",
          "name": "goal",
          "type": "uint256"
        }
      ],
      "name": "createEvent",
      "outputs": [],
      "stateMutability": "nonpayable",
      "type": "function"
    },
    {
      "inputs": [
        {
          "internalType": "uint256",
          "name": "idForEvent",
          "type": "uint256"
        }
      ],
      "name": "donate",
      "outputs": [],
      "stateMutability": "payable",
      "type": "function"
    },
    {
      "inputs": [
        {
          "internalType": "uint256",
          "name": "idForEvent",
          "type": "uint256"
        }
      ],
      "name": "withdraw",
      "outputs": [],
      "stateMutability": "nonpayable",
      "type": "function"
    },
    {
      "inputs": [],
      "name": "getHomeData",
      "outputs": [
        {
          "components": [
            {
              "internalType": "string",
              "name": "title",
              "type": "string"
            },
            {
              "internalType": "uint256",
              "name": "id",
              "type": "uint256"
            }
          ],
          "internalType": "struct FundRaise.HomeCard[]",
          "name": "",
          "type": "tuple[]"
        }
      ],
      "stateMutability": "view",
      "type": "function"
    }
  ],
  "bytecode": "0x6080604052600060015534801561001557600080fd5b5061003261002761003760201b60201c565b61003f60201b60201c565b610103565b600033905090565b60008060009054906101000a900473ffffffffffffffffffffffffffffffffffffffff169050816000806101000a81548173ffffffffffffffffffffffffffffffffffffffff021916908373ffffffffffffffffffffffffffffffffffffffff1602179055508173ffffffffffffffffffffffffffffffffffffffff168173ffffffffffffffffffffffffffffffffffffffff167f8be0079c531659141344cd1fd0a4f28419497f9722a3daafe3b4186f6b6457e060405160405180910390a35050565b6113be806101126000396000f3fe6080604052600436106100865760003560e01c80635555fe17116100595780635555fe171461014d578063715018a6146101765780638da5cb5b1461018d578063f14faf6f146101b8578063f2fde38b146101d457610086565b8063089cdd0c1461008b5780632c0946c7146100b65780632e1a7d4d146100f95780633958f20d14610122575b600080fd5b34801561009757600080fd5b506100a06101fd565b6040516100ad9190610b84565b60405180910390f35b3480156100c257600080fd5b506100dd60048036038101906100d89190610bdf565b610203565b6040516100f09796959493929190610d01565b60405180910390f35b34801561010557600080fd5b50610120600480360381019061011b9190610bdf565b610382565b005b34801561012e57600080fd5b5061013761049e565b6040516101449190610ed6565b60405180910390f35b34801561015957600080fd5b50610174600480360381019061016f919061102d565b6105f9565b005b34801561018257600080fd5b5061018b610800565b005b34801561019957600080fd5b506101a2610888565b6040516101af91906110b8565b60405180910390f35b6101d260048036038101906101cd9190610bdf565b6108b1565b005b3480156101e057600080fd5b506101fb60048036038101906101f691906110ff565b6108ea565b005b60015481565b60026020528060005260406000206000915090508060000180546102269061115b565b80601f01602080910402602001604051908101604052809291908181526020018280546102529061115b565b801561029f5780601f106102745761010080835404028352916020019161029f565b820191906000526020600020905b81548152906001019060200180831161028257829003601f168201915b5050505050908060010180546102b49061115b565b80601f01602080910402602001604051908101604052809291908181526020018280546102e09061115b565b801561032d5780601f106103025761010080835404028352916020019161032d565b820191906000526020600020905b81548152906001019060200180831161031057829003601f168201915b5050505050908060020154908060030154908060040154908060050160009054906101000a900460ff16908060050160019054906101000a900473ffffffffffffffffffffffffffffffffffffffff16905087565b600033905060006002600084815260200190815260200160002090508060050160019054906101000a900473ffffffffffffffffffffffffffffffffffffffff1673ffffffffffffffffffffffffffffffffffffffff168273ffffffffffffffffffffffffffffffffffffffff16146103fa57600080fd5b8173ffffffffffffffffffffffffffffffffffffffff166108fc82600301549081150290604051600060405180830381858888f19350505050158015610444573d6000803e3d6000fd5b5060008160050160006101000a81548160ff0219169083151502179055507f5b6b431d4476a211bb7d41c20d1aab9ae2321deee0d20be3d9fc9b1093fa6e3d836040516104919190610b84565b60405180910390a1505050565b6060600060015467ffffffffffffffff8111156104be576104bd610f02565b5b6040519080825280602002602001820160405280156104f757816020015b6104e4610aae565b8152602001906001900390816104dc5790505b50905060005b6001548110156105f157600060405180604001604052806002600085815260200190815260200160002060000180546105359061115b565b80601f01602080910402602001604051908101604052809291908181526020018280546105619061115b565b80156105ae5780601f10610583576101008083540402835291602001916105ae565b820191906000526020600020905b81548152906001019060200180831161059157829003601f168201915b50505050508152602001838152509050808383815181106105d2576105d161118d565b5b60200260200101819052505080806105e9906111eb565b9150506104fd565b508091505090565b6106016109e2565b73ffffffffffffffffffffffffffffffffffffffff1661061f610888565b73ffffffffffffffffffffffffffffffffffffffff1614610675576040517f08c379a000000000000000000000000000000000000000000000000000000000815260040161066c90611280565b60405180910390fd5b60006001549050600033905060006040518060e00160405280878152602001868152602001858152602001600081526020018481526020016001151581526020018373ffffffffffffffffffffffffffffffffffffffff16815250905080600260008581526020019081526020016000206000820151816000019080519060200190610702929190610ac8565b50602082015181600101908051906020019061071f929190610ac8565b5060408201518160020155606082015181600301556080820151816004015560a08201518160050160006101000a81548160ff02191690831515021790555060c08201518160050160016101000a81548173ffffffffffffffffffffffffffffffffffffffff021916908373ffffffffffffffffffffffffffffffffffffffff16021790555090505060018060008282546107ba91906112a0565b925050819055507f748ff5cfd7b66bdd8e21581c2a864756fe7085378c0003183e579bfafba28325836040516107f09190610b84565b60405180910390a1505050505050565b6108086109e2565b73ffffffffffffffffffffffffffffffffffffffff16610826610888565b73ffffffffffffffffffffffffffffffffffffffff161461087c576040517f08c379a000000000000000000000000000000000000000000000000000000000815260040161087390611280565b60405180910390fd5b61088660006109ea565b565b60008060009054906101000a900473ffffffffffffffffffffffffffffffffffffffff16905090565b600060026000838152602001908152602001600020905060003490508082600301546108dd91906112a0565b8260030181905550505050565b6108f26109e2565b73ffffffffffffffffffffffffffffffffffffffff16610910610888565b73ffffffffffffffffffffffffffffffffffffffff1614610966576040517f08c379a000000000000000000000000000000000000000000000000000000000815260040161095d90611280565b60405180910390fd5b600073ffffffffffffffffffffffffffffffffffffffff168173ffffffffffffffffffffffffffffffffffffffff1614156109d6576040517f08c379a00000000000000000000000000000000000000000000000000000000081526004016109cd90611368565b60405180910390fd5b6109df816109ea565b50565b600033905090565b60008060009054906101000a900473ffffffffffffffffffffffffffffffffffffffff169050816000806101000a81548173ffffffffffffffffffffffffffffffffffffffff021916908373ffffffffffffffffffffffffffffffffffffffff1602179055508173ffffffffffffffffffffffffffffffffffffffff168173ffffffffffffffffffffffffffffffffffffffff167f8be0079c531659141344cd1fd0a4f28419497f9722a3daafe3b4186f6b6457e060405160405180910390a35050565b604051806040016040528060608152602001600081525090565b828054610ad49061115b565b90600052602060002090601f016020900481019282610af65760008555610b3d565b82601f10610b0f57805160ff1916838001178555610b3d565b82800160010185558215610b3d579182015b82811115610b3c578251825591602001919060010190610b21565b5b509050610b4a9190610b4e565b5090565b5b80821115610b67576000816000905550600101610b4f565b5090565b6000819050919050565b610b7e81610b6b565b82525050565b6000602082019050610b996000830184610b75565b92915050565b6000604051905090565b600080fd5b600080fd5b610bbc81610b6b565b8114610bc757600080fd5b50565b600081359050610bd981610bb3565b92915050565b600060208284031215610bf557610bf4610ba9565b5b6000610c0384828501610bca565b91505092915050565b600081519050919050565b600082825260208201905092915050565b60005b83811015610c46578082015181840152602081019050610c2b565b83811115610c55576000848401525b50505050565b6000601f19601f8301169050919050565b6000610c7782610c0c565b610c818185610c17565b9350610c91818560208601610c28565b610c9a81610c5b565b840191505092915050565b60008115159050919050565b610cba81610ca5565b82525050565b600073ffffffffffffffffffffffffffffffffffffffff82169050919050565b6000610ceb82610cc0565b9050919050565b610cfb81610ce0565b82525050565b600060e0820190508181036000830152610d1b818a610c6c565b90508181036020830152610d2f8189610c6c565b9050610d3e6040830188610b75565b610d4b6060830187610b75565b610d586080830186610b75565b610d6560a0830185610cb1565b610d7260c0830184610cf2565b98975050505050505050565b600081519050919050565b600082825260208201905092915050565b6000819050602082019050919050565b600082825260208201905092915050565b6000610dc682610c0c565b610dd08185610daa565b9350610de0818560208601610c28565b610de981610c5b565b840191505092915050565b610dfd81610b6b565b82525050565b60006040830160008301518482036000860152610e208282610dbb565b9150506020830151610e356020860182610df4565b508091505092915050565b6000610e4c8383610e03565b905092915050565b6000602082019050919050565b6000610e6c82610d7e565b610e768185610d89565b935083602082028501610e8885610d9a565b8060005b85811015610ec45784840389528151610ea58582610e40565b9450610eb083610e54565b925060208a01995050600181019050610e8c565b50829750879550505050505092915050565b60006020820190508181036000830152610ef08184610e61565b905092915050565b600080fd5b600080fd5b7f4e487b7100000000000000000000000000000000000000000000000000000000600052604160045260246000fd5b610f3a82610c5b565b810181811067ffffffffffffffff82111715610f5957610f58610f02565b5b80604052505050565b6000610f6c610b9f565b9050610f788282610f31565b919050565b600067ffffffffffffffff821115610f9857610f97610f02565b5b610fa182610c5b565b9050602081019050919050565b82818337600083830152505050565b6000610fd0610fcb84610f7d565b610f62565b905082815260208101848484011115610fec57610feb610efd565b5b610ff7848285610fae565b509392505050565b600082601f83011261101457611013610ef8565b5b8135611024848260208601610fbd565b91505092915050565b60008060006060848603121561104657611045610ba9565b5b600084013567ffffffffffffffff81111561106457611063610bae565b5b61107086828701610fff565b935050602084013567ffffffffffffffff81111561109157611090610bae565b5b61109d86828701610fff565b92505060406110ae86828701610bca565b9150509250925092565b60006020820190506110cd6000830184610cf2565b92915050565b6110dc81610ce0565b81146110e757600080fd5b50565b6000813590506110f9816110d3565b92915050565b60006020828403121561111557611114610ba9565b5b6000611123848285016110ea565b91505092915050565b7f4e487b7100000000000000000000000000000000000000000000000000000000600052602260045260246000fd5b6000600282049050600182168061117357607f821691505b602082108114156111875761118661112c565b5b50919050565b7f4e487b7100000000000000000000000000000000000000000000000000000000600052603260045260246000fd5b7f4e487b7100000000000000000000000000000000000000000000000000000000600052601160045260246000fd5b60006111f682610b6b565b91507fffffffffffffffffffffffffffffffffffffffffffffffffffffffffffffffff821415611229576112286111bc565b5b600182019050919050565b7f4f776e61626c653a2063616c6c6572206973206e6f7420746865206f776e6572600082015250565b600061126a602083610c17565b915061127582611234565b602082019050919050565b600060208201905081810360008301526112998161125d565b9050919050565b60006112ab82610b6b565b91506112b683610b6b565b9250827fffffffffffffffffffffffffffffffffffffffffffffffffffffffffffffffff038211156112eb576112ea6111bc565b5b828201905092915050565b7f4f776e61626c653a206e6577206f776e657220697320746865207a65726f206160008201527f6464726573730000000000000000000000000000000000000000000000000000602082015250565b6000611352602683610c17565b915061135d826112f6565b604082019050919050565b6000602082019050818103600083015261138181611345565b905091905056fea26469706673582212202388b8abe72bc30cf913de899ac33f967c1f559c6251521bb984b0562adc802964736f6c634300080b0033",
  "immutableReferences": {},
  "source": "// SPDX-License-Identifier: MIT\npragma solidity ^0.8.0;\n\nimport \"@openzeppelin/contracts/token/ERC721/ERC721.sol\";\nimport \"@openzeppelin/contracts/access/Ownable.sol\";\n\n/// @title Contract for automated charity fundraising projects.\n/// @author Simon Muia\n/// @notice Allows a user to create fundraising campaigns.\n/// @dev Timestamps in secs to match block.timestamp unit \n\n//Define Fundraise contract\ncontract FundRaise is Ownable {\n\n    uint256 public eventId = 0;\n\n    //define fundRaiseEvent Struct\n    struct FundRaiseEvent {\n        string title; //Project title\n        string description; // Project description\n        uint goal; // Amount the beneficiary wishes to raise\n        uint currentAmount; //current fundraised amount\n        uint id; //Project id\n        bool status;\n        address creator; //If the project owner who is allowed to withdraw.\n    }\n    //Load the project title and description.\n    struct HomeCard {\n        string title;\n        uint id;\n    }\n\n    \n    mapping (uint => FundRaiseEvent) public fundRaises;\n\n    //Emit an event to let the user know the event has been created.\n    event EventCreated(uint id);\n    //Emit donated event\n    event Donated(uint amount);\n    //Emit Withdraw event\n    event Withdraw(uint id);\n\n    //implement create fundraising event (capture, event title, description and goal)\n    function createEvent(\n        string memory _title, \n        string memory _description, \n        uint goal\n        ) public onlyOwner {\n\n        uint idForNewEvent = eventId;\n        address eventCreator = payable(msg.sender);\n\n        FundRaiseEvent memory newFundRaise = FundRaiseEvent(\n\n            _title, _description, goal, 0, idForNewEvent, true, eventCreator\n            \n            );\n\n        fundRaises[idForNewEvent] = newFundRaise;\n\n        eventId += 1;\n\n        emit EventCreated(idForNewEvent);\n    }\n    \n\n    //Create a donate function\n    function donate(uint idForEvent) public payable {\n        FundRaiseEvent storage fundRaise = fundRaises[idForEvent];\n        uint amount = msg.value;\n\n        fundRaise.currentAmount = fundRaise.currentAmount + amount;\n    }\n\n    //Get the Amount balance & Transfer balance to user\n    function withdraw(uint idForEvent) public {\n\n        address payable accountWithdrawing = payable(msg.sender);\n\n\n        FundRaiseEvent storage fundRaise = fundRaises[idForEvent];\n        //Verify if person withdrawing is owner\n        require(accountWithdrawing == fundRaise.creator);\n        //If yes, transfer the amounts\n        accountWithdrawing.transfer(fundRaise.currentAmount);\n\n        fundRaise.status = false;\n\n        emit Withdraw(idForEvent);\n    }\n\n    //create function that gets data for HomePage\n    function getHomeData() public view  returns (HomeCard[] memory) {\n        HomeCard[] memory cards = new HomeCard[](eventId);\n\n        //loop through the available fundraisers and create homeCard for each fundraiser\n        for (uint i=0; i < eventId; i++) {\n            HomeCard memory homeCard = HomeCard(fundRaises[i].title, i);\n            cards[i] = homeCard;\n        }\n        return cards;\n    }\n\n}",
  "sourcePath": "/home/codebreak/Personal Projects/Consensys-thereum-bootcamp/Chapter09-1 - The-Final-Project/FInal project/blockchain-developer-bootcamp-final-project/contracts/FundRaise.sol",
  "compiler": {
    "name": "solc",
    "version": "0.8.11+commit.d7f03943.Emscripten.clang"
  },
  "schemaVersion": "3.4.4",
  "updatedAt": "2022-01-17T14:40:10.036Z",
  "devdoc": {
    "author": "Simon Muia",
    "details": "Timestamps in secs to match block.timestamp unit ",
    "kind": "dev",
    "methods": {
      "owner()": {
        "details": "Returns the address of the current owner."
      },
      "renounceOwnership()": {
        "details": "Leaves the contract without owner. It will not be possible to call `onlyOwner` functions anymore. Can only be called by the current owner. NOTE: Renouncing ownership will leave the contract without an owner, thereby removing any functionality that is only available to the owner."
      },
      "transferOwnership(address)": {
        "details": "Transfers ownership of the contract to a new account (`newOwner`). Can only be called by the current owner."
      }
    },
    "title": "Contract for automated charity fundraising projects.",
    "version": 1
  },
  "userdoc": {
    "kind": "user",
    "methods": {},
    "notice": "Allows a user to create fundraising campaigns.",
    "version": 1
  }
}